{
  "contractName": "SimpleEscrow",
  "abi": [
    {
      "constant": true,
      "inputs": [],
      "name": "seller",
      "outputs": [
        {
          "name": "",
          "type": "address"
        }
      ],
      "payable": false,
      "stateMutability": "view",
      "type": "function"
    },
    {
      "constant": true,
      "inputs": [],
      "name": "buyer",
      "outputs": [
        {
          "name": "",
          "type": "address"
        }
      ],
      "payable": false,
      "stateMutability": "view",
      "type": "function"
    },
    {
      "inputs": [
        {
          "name": "buyer_address",
          "type": "address"
        },
        {
          "name": "seller_address",
          "type": "address"
        }
      ],
      "payable": false,
      "stateMutability": "nonpayable",
      "type": "constructor"
    },
    {
      "constant": true,
      "inputs": [],
      "name": "getBuyerAddress",
      "outputs": [
        {
          "name": "",
          "type": "address"
        }
      ],
      "payable": false,
      "stateMutability": "view",
      "type": "function"
    },
    {
      "constant": true,
      "inputs": [],
      "name": "getSellerAddress",
      "outputs": [
        {
          "name": "",
          "type": "address"
        }
      ],
      "payable": false,
      "stateMutability": "view",
      "type": "function"
    },
    {
      "constant": true,
      "inputs": [],
      "name": "getDepositedAmount",
      "outputs": [
        {
          "name": "",
          "type": "uint256"
        }
      ],
      "payable": false,
      "stateMutability": "view",
      "type": "function"
    },
    {
      "constant": false,
      "inputs": [],
      "name": "accept",
      "outputs": [],
      "payable": false,
      "stateMutability": "nonpayable",
      "type": "function"
    },
    {
      "constant": false,
      "inputs": [],
      "name": "deposit",
      "outputs": [],
      "payable": true,
      "stateMutability": "payable",
      "type": "function"
    },
    {
      "constant": false,
      "inputs": [],
      "name": "cancel",
      "outputs": [],
      "payable": false,
      "stateMutability": "nonpayable",
      "type": "function"
    },
    {
      "constant": true,
      "inputs": [],
      "name": "kill",
      "outputs": [],
      "payable": false,
      "stateMutability": "view",
      "type": "function"
    }
  ],
  "bytecode": "0x608060405234801561001057600080fd5b5060405160408061095d833981018060405281019080805190602001909291908051906020019092919050505081600160006101000a81548173ffffffffffffffffffffffffffffffffffffffff021916908373ffffffffffffffffffffffffffffffffffffffff16021790555080600260006101000a81548173ffffffffffffffffffffffffffffffffffffffff021916908373ffffffffffffffffffffffffffffffffffffffff16021790555033600360006101000a81548173ffffffffffffffffffffffffffffffffffffffff021916908373ffffffffffffffffffffffffffffffffffffffff160217905550505061084c806101116000396000f300608060405260043610610099576000357c0100000000000000000000000000000000000000000000000000000000900463ffffffff16806308551a531461009e5780632852b71c146100f5578063322ba9f31461010c57806341c0e1b5146101375780637150d8ae1461014e57806384b09e86146101a5578063d0e30db0146101fc578063ea8a1af014610206578063fa0c15131461021d575b600080fd5b3480156100aa57600080fd5b506100b3610274565b604051808273ffffffffffffffffffffffffffffffffffffffff1673ffffffffffffffffffffffffffffffffffffffff16815260200191505060405180910390f35b34801561010157600080fd5b5061010a61029a565b005b34801561011857600080fd5b5061012161043b565b6040518082815260200191505060405180910390f35b34801561014357600080fd5b5061014c610444565b005b34801561015a57600080fd5b506101636104d7565b604051808273ffffffffffffffffffffffffffffffffffffffff1673ffffffffffffffffffffffffffffffffffffffff16815260200191505060405180910390f35b3480156101b157600080fd5b506101ba6104fd565b604051808273ffffffffffffffffffffffffffffffffffffffff1673ffffffffffffffffffffffffffffffffffffffff16815260200191505060405180910390f35b610204610527565b005b34801561021257600080fd5b5061021b61058f565b005b34801561022957600080fd5b506102326106e4565b604051808273ffffffffffffffffffffffffffffffffffffffff1673ffffffffffffffffffffffffffffffffffffffff16815260200191505060405180910390f35b600260009054906101000a900473ffffffffffffffffffffffffffffffffffffffff1681565b600160009054906101000a900473ffffffffffffffffffffffffffffffffffffffff1673ffffffffffffffffffffffffffffffffffffffff163373ffffffffffffffffffffffffffffffffffffffff161415610310576001600560006101000a81548160ff021916908315150217905550610383565b600260009054906101000a900473ffffffffffffffffffffffffffffffffffffffff1673ffffffffffffffffffffffffffffffffffffffff163373ffffffffffffffffffffffffffffffffffffffff161415610382576001600560016101000a81548160ff0219169083151502179055505b5b600560009054906101000a900460ff1680156103ab5750600560019054906101000a900460ff165b156103bd576103b861070e565b610439565b600560009054906101000a900460ff1680156103e65750600560019054906101000a900460ff16155b80156103f8575062278d006004540142115b1561043857600160009054906101000a900473ffffffffffffffffffffffffffffffffffffffff1673ffffffffffffffffffffffffffffffffffffffff16ff5b5b565b60008054905090565b600360009054906101000a900473ffffffffffffffffffffffffffffffffffffffff1673ffffffffffffffffffffffffffffffffffffffff163373ffffffffffffffffffffffffffffffffffffffff1614156104d557600160009054906101000a900473ffffffffffffffffffffffffffffffffffffffff1673ffffffffffffffffffffffffffffffffffffffff16ff5b565b600160009054906101000a900473ffffffffffffffffffffffffffffffffffffffff1681565b6000600260009054906101000a900473ffffffffffffffffffffffffffffffffffffffff16905090565b600160009054906101000a900473ffffffffffffffffffffffffffffffffffffffff1673ffffffffffffffffffffffffffffffffffffffff163373ffffffffffffffffffffffffffffffffffffffff16141561058d573460008082825401925050819055505b565b600160009054906101000a900473ffffffffffffffffffffffffffffffffffffffff1673ffffffffffffffffffffffffffffffffffffffff163373ffffffffffffffffffffffffffffffffffffffff161415610605576000600560006101000a81548160ff021916908315150217905550610678565b600260009054906101000a900473ffffffffffffffffffffffffffffffffffffffff1673ffffffffffffffffffffffffffffffffffffffff163373ffffffffffffffffffffffffffffffffffffffff161415610677576000600560016101000a81548160ff0219169083151502179055505b5b600560009054906101000a900460ff161580156106a25750600560019054906101000a900460ff16155b156106e257600160009054906101000a900473ffffffffffffffffffffffffffffffffffffffff1673ffffffffffffffffffffffffffffffffffffffff16ff5b565b6000600160009054906101000a900473ffffffffffffffffffffffffffffffffffffffff16905090565b600360009054906101000a900473ffffffffffffffffffffffffffffffffffffffff1673ffffffffffffffffffffffffffffffffffffffff166108fc60643073ffffffffffffffffffffffffffffffffffffffff163181151561076d57fe5b049081150290604051600060405180830381858888f19350505050158015610799573d6000803e3d6000fd5b50600260009054906101000a900473ffffffffffffffffffffffffffffffffffffffff1673ffffffffffffffffffffffffffffffffffffffff166108fc3073ffffffffffffffffffffffffffffffffffffffff16319081150290604051600060405180830381858888f1935050505015610819576000808190555061081e565b600080fd5b5600a165627a7a723058204838e67b709973106138e2e7e39b9a9016c4a1323b3267b6338eb534fcc2e8ed0029",
  "source": "pragma solidity ^0.4.0;\n\ncontract SimpleEscrow {\n    uint balance;\n    address public buyer;\n    address public seller;\n    address private escrow;\n    uint private start;\n    bool buyerOk;\n    bool sellerOk;\n\n\n    function SimpleEscrow(address buyer_address, address seller_address){\n        buyer = buyer_address;\n        seller = seller_address;\n        escrow = msg.sender;\n    }\n\n\n    function getBuyerAddress() public view returns (address){ //. Calling a view cannot alter the behaviour of future interactions with any contract. This means such functions cannot use SSTORE, cannot send or receive ether and can only call other view or pure functions.\n        return buyer;\n    }\n    function getSellerAddress() public view returns (address){ //. Calling a view cannot alter the behaviour of future interactions with any contract. This means such functions cannot use SSTORE, cannot send or receive ether and can only call other view or pure functions.\n        return seller;\n    }\n\n    function getDepositedAmount() public view returns (uint){\n        return balance;\n    }\n\n\n    function accept() public {\n        if (msg.sender == buyer) {\n            buyerOk = true;\n        } else if (msg.sender == seller) {\n            sellerOk = true;\n        }\n        if (buyerOk && sellerOk) {\n            payBalance();\n        } else if (buyerOk && !sellerOk && now > start + 30 days) {\n            // Freeze 30 days before release to buyer. The customer has to remember to call this method after freeze period.\n            selfdestruct(buyer);\n        }\n    }\n\n    function payBalance() private {\n        // we are sending ourselves (contract creator) a fee\n        escrow.transfer(this.balance / 100);\n\n        if (seller.send(this.balance)) {// if send fails it returns false. This is needed to control the logic (in order to reset the balance to 0)\n            balance = 0;\n        } else {\n            throw;\n            // When a contract is firing an exception (via throw / require / assert), the transaction and all change to the state are reverted . Any ether that was sent during the transaction will not be transferred .\n\n        }\n    }\n\n    function deposit() public payable {\n        if (msg.sender == buyer) {\n            balance += msg.value;\n            // if somebody other than the buyer deposits money to this smart contract the deposited money will be lost\n        }\n    }\n\n    function cancel() public {\n        if (msg.sender == buyer) {\n            buyerOk = false;\n        } else if (msg.sender == seller) {\n            sellerOk = false;\n        }\n        // if both buyer and seller would like to cancel, money is returned to buyer\n        if (!buyerOk && !sellerOk) {\n            selfdestruct(buyer);\n        }\n    }\n\n    function refundBuyer() private {// only we (the escrow can refund the buyer if there is a dispute )\n        if (msg.sender == escrow) {\n            escrow.transfer(this.balance / 100);\n            selfdestruct(buyer);\n        }\n    }\n\n    function kill() public constant {\n        if (msg.sender == escrow) {\n            selfdestruct(buyer);\n        }\n    }\n}\n",
  "sourcePath": "/home/matyas/Programmierung/comunitaria/comunitaria_escrow_sample/contracts/SimpleEscrow.sol",
  "compiler": {
    "name": "solc",
    "version": "0.4.23+commit.124ca40d.Emscripten.clang"
  },
  "schemaVersion": "2.0.0",
  "updatedAt": "2018-07-04T14:55:31.391Z"
}